:020000040800F2
:10000000D84C002061020008B1400008DB3600082F
:10001000AD400008110A00089D50000800000000D3
:10002000000000000000000000000000A101000826
:10003000B30C000800000000FD0100082545000881
:100040007B0200087B0200087B0200087B0200089C
:100050007B0200087B0200087B0200087B0200088C
:100060007B0200087B0200087B0200087B0200087C
:100070007B0200087B0200087B020008890B000855
:10008000990B00087B0200087B0200087B02000835
:10009000150A0008250A00087B0200087B020008F8
:1000A0007B020008214600087B0200087B02000852
:1000B0007B0200087B0200087B0200087B0200082C
:1000C0007B0200087B0200087B0200087B0200081C
:1000D0007B0200087B0200083D5000087B020008FC
:1000E0007B0200087B0200087B0200087B020008FC
:1000F0007B0200087B0200087B0200087B020008EC
:100100007B0200087B0200087B0200087B020008DB
:100110005D4900087B0200087B0200087B020008A2
:100120007B0200087B0200087B0200087B020008BB
:100130007B02000800000000000000007B020008B5
:10014000850A0008950A00087B0200087B02000867
:100150007B0200087B0200087B0200087B0200088B
:100160007B0200087B0200087B0200087B0200087B
:100170007B0200087B020008000000000000000075
:100180007B0200087B020008DFF810D000F0B2FB11
:100190000048004705780008AFF30080D84C0020E5
:1001A0002C4B19680868B0E8F04F80F30988BFF35A
:1001B0006F8F4FF0000080F311887047000000003F
:1001C00008480068006880F308884FF0000080F35A
:1001D000148862B661B6BFF34F8FBFF36F8F00DF35
:1001E00000BF00BF08ED00E0DFF80C00016841F43B
:1001F00070010160704700BF88ED00E0EFF30980F7
:10020000BFF36F8F134B1A681EF0100F08BF20ED5D
:10021000108A20E9F04F106009B44FF0500080F3CD
:100220001188BFF34F8FBFF36F8F09F09FFE4FF020
:10023000000080F3118809BC19680868B0E8F04F25
:100240001EF0100F08BFB0EC108A80F30988BFF3CE
:100250006F8F70477C010020EFF30580704700002E
:100260000648804706480047FEE7FEE7FEE7FEE750
:10027000FEE7FEE7FEE7FEE7FEE7FEE70D460008C5
:10028000890100082DE9F05F0546002092469B4653
:1002900088460646814640241BE02846414647469C
:1002A000224600F059FA53465A46C01A914110D3DB
:1002B00011461846224600F040FA2D1A67EB010855
:1002C0004F4622460120002100F037FA17EB0009C3
:1002D0004E41201EA4F10104DFDC484631462A4687
:1002E0004346BDE8F09F2DE9F0410024061B25465A
:1002F00071F1000605DA01240027D0EB070067EB57
:100300000101161E73F1000605DA0027D2EB070281
:10031000012567EB0303FFF7B5FF86460E46174638
:100320009C46AC4204D00025D0EB050E65EB0106DF
:1003300024B10020D2EB000760EB030C704631467D
:100340003A466346BDE8F08140EA01039B0703D0CB
:1003500009E008C9121F08C0042AFAD203E011F804
:10036000013B00F8013B521EF9D27047D2B201E0C6
:1003700000F8012B491EFBD270470022F6E710B5AA
:1003800013460A4604461946FFF7F0FF204610BD03
:1003900030B504460020034600E05B1C934203D2C4
:1003A000E05CCD5C401BF8D030BD2DE9FE4F8046AF
:1003B00081EA0300C00F0C46009021F0004123F0B9
:1003C0000045B8EB0200A94105D2404621469046BF
:1003D0001C460B46024623F00040104347D0270D31
:1003E000C7F30A00C3F30A510290401A0190402853
:1003F0006BDAC3F3130040F4801B0098924620B1DF
:100400000023D2EB030A63EB0B0B01985946C0F1B2
:100410004002504600F091F906460D4650465946B6
:10042000019A00F0A9F910EB08006141002487EA65
:10043000115284EAE7731A4340D0009A62B3019ADA
:10044000012A4FEA075215DC001B61EB02014FF055
:10045000004202EA0752CDE90042001C41F580113A
:1004600032462B4600F0E0F903B0BDE8F08F40467D
:100470002146F9E7001B61EB0201001C41F58013E6
:1004800000185B412018A2F5001747EB030140EA72
:10049000D570B6196D4111E06D084FEA360645EA90
:1004A000C0754FEA0752001B61EB0201001C41F5C9
:1004B000801149084FEA30000019514132462B465D
:1004C00003B0BDE8F04F00F0A0B900980122400051
:1004D0000023D0EB020263EBE073009821464FEA61
:1004E000E074B8EB000061EB0401E9E783F000433E
:1004F0005BE781F0004158E72DE9FE4F81EA0304F4
:1005000004F0004421F0004100944FF0000B23F070
:10051000004350EA01045ED052EA03045BD0C3F307
:100520000A54C1F30A552C44A4F2F3340194A0FBFD
:100530000254C1F3130141F48011C3F3130343F4D4
:10054000801301FB024400FB034E840A970A44EA2D
:10055000815447EA8357A4FB076802958D0A05FB7F
:1005600007854FEA932C04FB0C542705029D4FEAA4
:10057000065847EA1637B5EB08056EEB070C870EF1
:10058000920E47EA811742EA8312A7FB0201B6EBFB
:100590000B0164EB00042B0D43EA0C335E1844EBB3
:1005A0001C50DA465146E7FB0201C5F313044FEA3B
:1005B0000B3343EA14534FEA0432019C43EA060327
:1005C000A4F10C040294009CCDE900B400F02CF9D5
:1005D00003B0BDE8F08F00200146F9E72DE9F04DAA
:1005E00081EA030404F0004B21F0004514464FF06B
:1005F000000A23F0004150EA050220D054EA01022B
:100600001DD0C5F30A570246C5F31303C1F3130007
:10061000C1F30A5640F4801543F48013A7EB060893
:10062000101BD64608F2FD3873EB050002D308F123
:10063000010801E092185B41B8F1000F03DA0020D5
:100640000146BDE8F08D00204FF480110646844637
:100650000EE0171B73EB050705D3121B63EB0503B5
:1006600006434CEA010C49084FEA300092185B41FE
:1006700050EA0107EDD152EA030012D082EA0400E9
:1006800083EA0501084305D0101BAB4106D20122C5
:10069000002306E000224FF0004302E06FF0010269
:1006A00053101AEB06004CEB085110EB0A0041EB1B
:1006B0000B01BDE8F04D00F0A8B80EB5C10F80EAFF
:1006C000E0700844CA07002140F233438DE80E0071
:1006D0000A460B4600F0A8F803B000BD00F0004247
:1006E00030F000400AD0C10D01F56071C0F3160072
:1006F00042EA0151C20840071143704700200146F9
:10070000704701F0004330B421F0004150EA01028B
:1007100006D00A0DA2F56072C1F31301002A02DCB3
:1007200030BC00207047440F44EAC104C100E01807
:1007300030BC00EBC25000F031B8202A04DB203A74
:1007400000FA02F1002070479140C2F1200320FA24
:1007500003F3194390407047202A04DB203A21FA22
:1007600002F00021704721FA02F3D040C2F12002CA
:100770009140084319467047202A06DBCB17203AE0
:1007800041FA02F043EAE07306E041FA02F3D04096
:10079000C2F1200291400843194670470029A8BFC2
:1007A0007047401C490008BF20F00100704710B49A
:1007B000B0FA80FC00FA0CF050EA010404BF10BC4F
:1007C000704749B1CCF1200421FA04F411FA0CF17C
:1007D00018BF012121430843A3EB0C01CB1D4FEAB5
:1007E00000614FEA102042BF002010BC704700EBB0
:1007F000C35010440029A4BF10BC7047401C4900DE
:1008000008BF20F0010010BC704710B5141E73F132
:10081000000408DA401C41F1000192185B411A43C0
:1008200001D120F0010010BD2DE9F04D92469B460C
:1008300011B1B1FA81F202E0B0FA80F220329046B2
:10084000FFF77BFF04460F4640EA0A0041EA0B012E
:1008500053465A46084313D0114653EA010019D0B3
:10086000C8F140025046FFF777FF05460E46504656
:1008700059464246FFF761FF084305D0012004E0D6
:1008800020463946BDE8F08D0020054346EAE07673
:100890002C4337430A986305E40AA0EB08000022C2
:1008A000FD0A44EA47540A3002D500200146E9E730
:1008B000010510196941DDE9084500196941BDE8E4
:1008C000F04DA2E730B5041E71F1000404DB4FF0D7
:1008D0000044404264EB0101141E73F1000405DB87
:1008E0001C464FF00043524263EB04038B4208BFA7
:1008F000824230BD064C074D06E0E06840F001033F
:1009000094E8070098471034AC42F6D3FFF740FC58
:1009100070BA000890BA00082DE9F04D00231A467D
:100920001B1A8A4103DB00200146BDE8F08DC1F3AC
:100930000A52C1F3130141F480154FF0000BD107A7
:1009400002D100186D41521E0027044640F2FF11EB
:10095000384601EB620A3E468046024600204FF4CC
:100960008011FFF7F9FEC2197141BB1846EB010077
:10097000B4EB030C75EB000C04D3E41A65EB000533
:1009800017460E46241908F101006D4180463428AF
:10099000E3DDF91946EB0600091BA84103D24FF02D
:1009A000FF32134601E0002213461BEB070046EB23
:1009B0000A51BDE8F04DFFF728BF70B58C1810F84C
:1009C000015B15F0070301D110F8013B2A1106D194
:1009D00010F8012B03E010F8016B01F8016B5B1EAE
:1009E000F9D12B0705D40023521E0DD401F8013B89
:1009F000FAE710F8013BCB1A921C03E013F8015BF5
:100A000001F8015B521EF9D5A142D8D3002070BD78
:100A100000BFFEE710B5024800F0C6FB10BD0000A5
:100A20002C09002010B5024800F0BEFB10BD0000EC
:100A30002C090020F8B507460C4615461E4640F224
:100A4000FF100D49086000208860C8600820086118
:100A5000380A0A4908704F70200A8870CC70280A3A
:100A600008714D71300A8871CE716B460A46024991
:100A7000034800F09EF9F8BDA40B00206A01002095
:100A80002C09002010B5024800F08EFB10BD0000BC
:100A90005409002010B5024800F086FB10BD00008C
:100AA00054090020F8B507460C4615461E4640F28C
:100AB000FF100D49086000208860C86008200861A8
:100AC000380A0A4908704F70200A8870CC70280ACA
:100AD00008714D71300A8871CE716B460A46024921
:100AE000034800F066F9F8BDA40B00206A0100205D
:100AF00054090020F8B507460C4615461E464FF42B
:100B000000700D49086000208860C86008200861F6
:100B1000380A0A4908704F70200A8870CC70280A79
:100B200008714D71300A8871CE716B460A460249D0
:100B3000034800F03EF9F8BDBC0B00207201002014
:100B40002C090020B0EE401A9FED0C0AF0EE401A7E
:100B5000B7EE000A30EE612A094890ED000A094814
:100B6000D0ED002A00EEA20A22EE000A01EE810A70
:100B7000034880ED000A90ED000A70479A99193FEA
:100B80004C0100204801002010B5024800F0CCFEC6
:100B900010BD00004C0A002010B5024800F0C4FE51
:100BA00010BD0000AC0A0020014608781038182358
:100BB000B0FBF3F20848805CC865032A05D90868D1
:100BC0006FF30900001D886503E008686FF30900F2
:100BD0008865886D7047000028AC00080146002039
:100BE0008A6A8B69CBB932B1012A0DD0022A03D0AF
:100BF000032A10D10EE000BFCB6A03F08073B3F17B
:100C0000807F00D1012007E0CB6AB3F1C07F00D123
:100C1000012001E000E000BF34E08B69B3F5005F24
:100C20001AD132B1012A07D0022A03D0032A11D1E6
:100C30000AE000BF01200EE0CB6A03F08073B3F13D
:100C4000807F00D1012006E0CB6AB3F1C07F00D1E4
:100C5000012000E000BF15E032B1012A05D0022AD0
:100C600004D0032A0CD103E000BF00BF012008E03C
:100C7000CB6A03F08073B3F1807F00D1012000E0E4
:100C800000BF00BF704730B50468246824F4802496
:100C900005682C60046863608468402C04D1046893
:100CA000A2600468E16003E00468A1600468E26097
:100CB00030BD704772B600BFFEE700000178427891
:100CC00041EA0221C1F30A012E4A11801146098826
:100CD000A1F5806109B211804178C910827841EA9A
:100CE0004211C1F30A01274A518011464988A1F5F2
:100CF000806109B2518081788911C27841EA82010C
:100D0000027941EA8221C1F30A011E4A918011460B
:100D10008988A1F5806109B29180017949104279F1
:100D200041EAC211C1F30A01164AD1801146C988AD
:100D3000A1F5806109B2D180417909118908117248
:100D40004179C1F3011151728179C27941EA0221DD
:100D500009B20C4A5181017A427A41EA02210AB26F
:100D600008498A81817AC27A41EA02210AB2054998
:100D7000CA81017B4AB203490A74417B4AB20149E4
:100D80004A747047B006002010B5024692F8203031
:100D9000012B01D0022B06D110684069084314686A
:100DA0006061002010BD506A40F480205062012034
:100DB000F8E7F0B504460D461E4694F8207020680A
:100DC0008368A86800B900E000BF012F01D0022F9E
:100DD0007CD103F0806030B903F0006018B903F0F3
:100DE0008050002873D0C3F30161022905D9606ADD
:100DF00040F4000060620120F0BD012088403060B6
:100E0000A86860B9B5F800C0E86840EA4C5C2068A2
:100E100000F5C07000EB0110C0F800C00FE0D5E98C
:100E200001C040EACC00D5F80CC040EA0C00D4F870
:100E300000C00CF5C07C0CEB011CCCF80000D5F810
:100E400010C0206800F5C07000EB0110C0F804C0AD
:100E5000287D01280ED1206800F5C07000EB01103C
:100E6000406840F4807C206800F5C07000EB011001
:100E7000C0F804C0D079000692F806C040EA0C40E1
:100E800092F805C040EA0C2C10794CEA000C20685E
:100E900000F5C07000EB0110C0F80CC0D07800065F
:100EA00092F802C040EA0C4092F801C040EA0C20DF
:100EB00092F800C040EA0C00D4F800C00CF5C07CE9
:100EC0000CEB011CCCF80800206801E016E00FE0F4
:100ED00000F5C07000EB0110006840F0010C2068C4
:100EE00000F5C07000EB0110C0F800C0002083E7DF
:100EF000606A40F40010606201207DE7606A40F49F
:100F000080206062012077E7F0B504460A46216838
:100F100094F82050012D01D0022D7ED1424901F5D7
:100F20000071086840F001000860086820F47C50F7
:100F300008600868566A40EA06200860107D00F0E4
:100F40001F06012000FA06F3C8699843C861A1F59D
:100F50000071D069C8B9D1F80C029843C1F80C02ED
:100F6000908880B2968940EA064601F5107057696C
:100F700040F83760108880B2168940EA064601F5CD
:100F80001070576900EBC7004660D069012819D17D
:100F9000D1F80C021843C1F80C02908880B2168870
:100FA00040EA064601F51070576940F837609089AD
:100FB00080B2168940EA064601F51070576900EBC9
:100FC000C7004660906928B9D1F804029843C1F877
:100FD000040204E0D1F804021843C1F804021069C5
:100FE00028B9D1F814029843C1F8140204E0D1F8EA
:100FF00014021843C1F81402106A012804D1D1F870
:101000001C021843C1F81C02D1F8000220F00100B4
:10101000C1F800020020F0BDFFE7606A40F48020C4
:1010200060620120F7E7000000640040704770B57F
:10103000044694F82050012D01D0022D7DD151B9E4
:101040002068C06800F0030080B9606A40F40010B6
:101050006062012070BD2068006900F0030028B9BB
:10106000606A40F4001060620120F3E7206800F538
:10107000D87000EB0110006800F0040090609068E8
:1010800040B9206800F5D87000EB01100068400DF1
:10109000106007E0206800F5D87000EB01100068D0
:1010A000C0085060206800F5D87000EB011000689F
:1010B00000F00200D060206800F5D87000EB01104D
:1010C000406800F00F001061206800F5D87000EB58
:1010D0000110406800F47F40000A9061206800F52C
:1010E000D87000EB01104068000C5061206800F5DA
:1010F000D87000EB011080681870206800F5D87077
:1011000000EB0110806800F47F40000A58702068EE
:1011100000F5D87000EB0110806800F47F00000C2F
:101120009870206800F5D87000EB01108068000E00
:10113000D870206800F5D87000E02FE000EB0110B7
:10114000C0681871206800F5D87000EB0110C06805
:1011500000F47F40000A5871206800F5D87000EB59
:101160000110C06800F47F00000C9871206800F541
:10117000D87000EB0110C068000ED87131B920683A
:10118000C06840F020002668F06005E02068006933
:1011900040F020002668306100205BE7606A40F480
:1011A00080206062012055E72DE9F05F04460025AC
:1011B000206846692068D0F8049020688768206815
:1011C000D0F80CA02068D0F810B02068D0F81880B3
:1011D00006F00100002855D007F00100C0B1012041
:1011E0002168886007F0020018B1204600F02BFB50
:1011F0000EE007F0040010B145F4006508E007F0C8
:10120000080010B145F4805502E0204600F01AFBBA
:1012100007F48070C8B14FF480702168886007F4CB
:10122000007018B1204600F010FB0EE007F480605B
:1012300010B145F4005508E007F4006010B145F422
:10124000804502E0204600F0FFFA07F48030C8B184
:101250004FF480302168886007F4003018B12046D0
:1012600000F0F5FA0EE007F4802010B145F40045D7
:1012700008E007F4002010B145F4803502E0204674
:1012800000F0E4FA06F0080038B10AF0100020B1CE
:1012900045F4007510202168C86006F0040040B1D4
:1012A0000AF0080028B108202168C860204600F034
:1012B0001FFA06F0020038B12068C06800F0030091
:1012C00010B1204600F016FA06F0400038B10BF0DD
:1012D000100020B145F4806510202168086106F0F7
:1012E000200040B10BF0080028B1082021680861F7
:1012F000204600F075FA06F0100038B12068006949
:1013000000F0030010B1204600F06BFA06F4003044
:1013100040B109F0100028B1102021684860204633
:1013200000F060FA06F4803040B109F0080028B1FE
:10133000082021684860204600F08AFA06F4004040
:1013400088B309F0040078B306F4807020B108F087
:10135000010008B145F0010506F4007020B108F065
:10136000020008B145F0020506F4806020B108F0E3
:10137000040008B145F0040506F40060A0B108F0CF
:10138000700088B108F07000402817D006DC1028E3
:101390000BD020280CD0302819D10CE0502810D0C8
:1013A000602814D110E01DE019E045F008050FE0B9
:1013B00045F010050CE045F0200509E045F040053A
:1013C00006E045F0800503E045F4807500E000BFCD
:1013D00000BF2068806920F07000216888610420C7
:1013E000216848602DB1606A284360622046FFF79B
:1013F0001DFEBDE8F09F70B504460CB9012070BD1C
:1014000094F8200010B9204600F0B0F82068006879
:1014100040F001002168086000F082FD05460DE003
:1014200000F07EFD401B0A2808D9606A40F40030B5
:101430006062052084F820000120E0E72068406811
:1014400000F001000028EBD02068006820F00200C6
:101450002168086000F064FD05460DE000F060FDC5
:10146000401B0A2808D9606A40F4003060620520F9
:1014700084F820000120C2E72068406800F00200E4
:101480000028EBD1207E012806D12068006840F0BA
:1014900080002168086005E02068006820F0800076
:1014A00021680860607E012806D12068006840F04D
:1014B00040002168086005E02068006820F04000D6
:1014C00021680860A07E012806D12068006840F0ED
:1014D00020002168086005E02068006820F02000F6
:1014E00021680860E07E012806D12068006820F0AD
:1014F00010002168086005E02068006840F01000D6
:1015000021680860207F012806D12068006840F02B
:1015100008002168086005E02068006820F00800E5
:1015200021680860607F012806D12068006840F0CB
:1015300004002168086005E02068006820F00400CD
:1015400021680860D4E90201084321690843616900
:1015500008436168491E08432168C8610020606231
:10156000012084F82000002049E7000010B586B073
:101570000446142101A8FEF700FF5749206888425D
:101580004AD156480068401C544908600846006823
:1015900001280FD100BF002000905148006840F0A2
:1015A00000704F4908600846006800F00070009025
:1015B00000BF00BF00BF00200090494810380068FD
:1015C00040F001004649103908600846006800F004
:1015D0000100009000BF00BF4FF4C05001900220F6
:1015E000029000200390032004900920059001A997
:1015F0003C4800F08DFB00220621142000F04AFD3B
:10160000142000F037FD00220621152000F042FDD5
:10161000152000F02FFD5DE033492068884259D144
:1016200000BF002000902E48006840F080602C49E8
:1016300008600846006800F08060009000BF00BFAE
:1016400026480068401C25490860084600680128B3
:101650000FD100BF002000902148006840F00070CA
:101660001F4908600846006800F00070009000BF45
:1016700000BF00BF0020009019481038006840F0FB
:1016800002001749103908600846006800F002009F
:10169000009000BF00BF4FF4405001900220029024
:1016A00000200390032004900920059001A90F4811
:1016B00000F02EFB00220521402000F0EBFC402032
:1016C00000F0D8FC00220521412000F0E3FC41207D
:1016D00000F0D0FC06B010BD0064004050010020B6
:1016E0004038024000000240006800400004024010
:1016F0007047000010B58AB0044601AB03AA002170
:101700002046FFF794FC09F02DF831490860039852
:10171000A0F20120082857D2DFE800F004050607F0
:1017200008090A0B00BF00BF00BF00BF00BF00BF19
:1017300000BF0398401E274908700846007800EB58
:101740008000254931F8100000B22249097801EBE8
:101750008101214A02EB410108819DF805009DF8B5
:10176000041040EA01201B49097801EB810122F8AD
:1017700011009DF807009DF8061040EA012000B214
:101780001449097801EB810102EB410148809DF881
:1017900009009DF8081040EA012000B20D490978BF
:1017A00001EB810102EB410188809DF80A000949A3
:1017B000097801EB810102EB410188719DF8040079
:1017C00000020649088000E000BF00BF0AB010BD5B
:1017D000640100207A010020540B002068010020E1
:1017E00070477047704770B5044694F82000012890
:1017F00022D1022084F820002068006820F0010037
:101800002168086000F08CFB05460DE000F088FBC5
:10181000401B0A2808D9606A40F400306062052045
:1018200084F82000012070BD2068406800F00100AD
:101830000028EBD16062F6E7606A40F40020606245
:101840000120F0E770477047704770477047704756
:10185000704770B50446A56D00F062FB064694F82B
:101860003500022808D08020606500BF002084F881
:10187000340000BF012070BD2068006820F0160011
:10188000216808602068406920F080002168486174
:10189000206C08B9A06C28B12068006820F008000E
:1018A000216808602068006820F001002168086055
:1018B00010E000F035FB801B05280BD92020606567
:1018C000032084F8350000BF002084F8340000BFF6
:1018D0000320D0E72068006800F001000028E8D16C
:1018E00094F85C103F208840A860012084F83500FF
:1018F00000BF002084F8340000BF00BFBBE70146F2
:1019000091F83500022803D08020486501207047F7
:10191000052081F835000868006820F001000A6899
:1019200010600020F3E70000F8B5044600200090A6
:101930008C4800684FF41651B0FBF1F7A56D2E6886
:1019400094F85C1008208840304098B12068006806
:1019500000F0040070B12068006820F004002168E5
:10196000086094F85C1008208840A860606D40F022
:101970000100606594F85C1001208840304068B137
:101980002068406900F0800040B194F85C100120AC
:101990008840A860606D40F00200606594F85C10BB
:1019A00004208840304068B12068006800F00200E0
:1019B00040B194F85C1004208840A860606D40F04D
:1019C0000400606594F85C1010208840304078B3C3
:1019D0002068006800F0080050B394F85C101020F4
:1019E0008840A8602068006800F4802080B12068EA
:1019F000006800F4002028B9206CC8B12046216C92
:101A0000884715E0A06C98B12046A16C88470FE08C
:101A10002068006800F4807028B92068006820F011
:101A2000080021680860206C10B12046216C8847AE
:101A300094F85C10202088403040002865D0206851
:101A4000006800F0100000285FD094F85C1020209F
:101A50008840A86094F83500052828D120680068DF
:101A600020F01600216808602068406920F080009E
:101A700021684861206C08B9A06C28B12068006812
:101A800020F008002168086094F85C103F2088402E
:101A9000A860012084F8350000BF002084F83400DD
:101AA00000BF206D10B12046216D8847F8BD206829
:101AB000006800F4802080B12068006800F40020F5
:101AC00028B9606C10B12046616C88471DE0E06B5E
:101AD000D8B12046E16B884717E02068006800F421
:101AE000807068B92068006820F0100021680860E4
:101AF000012084F8350000BF002084F8340000BFC6
:101B0000E06B10B12046E16B8847606D38B3606DC3
:101B100000F00100F0B1052084F83500206800686D
:101B200020F001002168086000BF0098401C009070
:101B3000B84200D905E02068006800F001000028E4
:101B4000F3D100BF012084F8350000BF002084F8E5
:101B5000340000BFE06C10B12046E16C884700BF44
:101B6000A4E70000600100202DE9F04104460025B3
:101B700000F0D6F9074614B90120BDE8F081606A8B
:101B800000B100BF022084F8350000BF002084F8B7
:101B9000340000BF2068006820F001002168086060
:101BA0000AE000F0BDF9C01B052805D920206065BA
:101BB000032084F83500E0E72068006800F00100A9
:101BC0000028EED12068056821480540D4E90101CC
:101BD0000843E16808432169084361690843A16932
:101BE0000843E1690843216A08430543606A042801
:101BF00003D1D4E90B010843054320680560206840
:101C0000456925F00705606A0543606A04280DD11F
:101C1000A06A0543E06A48B12046FEF7DFFF28B11D
:101C200040206065012084F83500A6E72068456102
:101C30002046FEF7B9FF064694F85C103F20884026
:101C4000B06000206065012084F83500002094E732
:101C50003F8010F02DE9F04704460D4616461F461A
:101C60004FF00008D4F8589000BF94F834000128D1
:101C700002D10220BDE8F087012084F8340000BFC3
:101C800094F83500012825D1022084F83500002081
:101C900060653B46324629462046FEF7F4FF94F83D
:101CA0005C103F208840C9F808002068006840F0B8
:101CB000160021680860206C28B12068006840F098
:101CC0000800216808602068006840F00100216871
:101CD000086006E000BF002084F8340000BF4FF029
:101CE00002084046C6E7000070B5044600F018F947
:101CF00006462546681C10B104480078054400BF1C
:101D000000F00EF9801BA842FAD370BD5C010020E0
:101D1000F8B502460B460025002400200021D6E03D
:101D2000012606FA01F51E6806EA0504AC4274D1E4
:101D30001E7906F00306012E04D01E7906F0030674
:101D4000022E13D190684F000326BE40B0434F00CF
:101D5000DE68BE4030439060506801268E40B0433C
:101D60001E79C6F300168E40304350601E7906F08F
:101D70000306032E09D0D0684F000326BE40B043AF
:101D80004F009E68BE403043D0601E7906F00306C7
:101D9000022E13D1CF0802F1200656F827004E0775
:101DA000F70E0F26BE40B0434F07FF0E1E69BE4020
:101DB0003043CF0802F1200646F8270010684F0094
:101DC0000326BE40B0431E7906F003064F00BE4016
:101DD000304310605E6806F44036002E76D000BFB7
:101DE000002600963C4E366846F480463A4F3E60E8
:101DF0003E46366806F48046009600BF00BF374E68
:101E00008F0856F827008E07370F0F26BE40B043C5
:101E1000334EB24202D1002624E057E0314EB242A6
:101E200001D101261EE0304EB24201D1022619E056
:101E30002E4EB24201D1032614E02D4EB24201D102
:101E400004260FE02B4EB24201D105260AE02A4EAD
:101E5000B24201D1062605E0284EB24201D1072642
:101E600000E008268F073F0FBE4030431B4E8F080F
:101E700046F82700224E3068A0435E6806F48016BC
:101E800006B120431E4E3060361D3068A0435E68A8
:101E900006F4001606B12043194E361D3060184E68
:101EA000361F3068A0435E6806F4003606B1204352
:101EB000134E361F3060361F3068A0435E6806F44C
:101EC000803606B120430E4E083E3060491C102972
:101ED000FFF426AFF8BD0000443802400838014046
:101EE000000002400004024000080240000C0240D2
:101EF000001002400014024000180240001C024082
:101F0000083C0140024613690B400BB1012000E080
:101F1000002070470AB1816101E00B0483617047C2
:101F20000148006870470000540100200348006821
:101F300003490978084401490860704754010020AA
:101F40005C01002010B50D48006840F400700B499A
:101F500008600846006840F4806008600846006831
:101F600040F480700860032000F0D2F80F2000F0E9
:101F700007F800F055F8002010BD0000003C0240BA
:101F8000F0B587B004460026002700BF002000906F
:101F90001E48006840F001001C49086008460068BF
:101FA00000F00100009000BF00BF01A902A800F0EE
:101FB00085F900F0BBF946001548B6FBF0F0471E66
:101FC00014481549086040F2E7311348C160476082
:101FD000002101618160816100F0BAFC054695B97C
:101FE0000D4800F001FD05466DB9192000F042F8DA
:101FF000102C07D200222146192000F04BF8074888
:10200000046000E00125284607B0F0BD44380240D6
:1020100040420F00000001400C0B0020580100203E
:1020200008B500BF002000901148006840F48040CF
:102030000F4908600846006800F48040009000BF27
:1020400000BF00BF00200090081F006840F08050D3
:10205000091F08600846006800F08050009000BF2B
:1020600000BF00220F21901E00F014F808BD0000F0
:102070004438024001460846002809DB00F01F03EF
:1020800001229A4043099B0003F1E023C3F8002199
:1020900000BF70472DE9F05F80460D4616460027C9
:1020A00003F026F8074639462A46334601F0070072
:1020B000C0F1070ABAF1040F02D94FF0040A01E097
:1020C000C0F1070AD14600F1040ABAF1070F02D2A3
:1020D0004FF0000A01E0A0F1030AD4464FF0010AD4
:1020E0000AFA09FAAAF1010A0AEA020A0AFA0CFA39
:1020F0004FF0010B0BFA0CFBABF1010B0BEA030BDE
:102100004AEA0B042146404602F0FAFFBDE8F09F80
:1021100000BF00F00702064B19684FF6FF03194095
:10212000044B0B4343EA0221014B196000BF704787
:102130000CED00E00000FA0570B504460D460CB940
:10214000012070BD5848006800F00700A84209D27D
:1021500055490D700846006800F00700A84201D0FC
:102160000120EEE7207800F0020002281DD120783F
:1021700000F00400042805D14C48006840F4E05009
:102180004A490860207800F00800082805D147482F
:10219000006840F46040454908604448006820F009
:1021A000F000A168084341490860207800F0010070
:1021B000A8B36068012807D13C4808380068C0F31C
:1021C0004040B8B90120BCE76068022802D06068CE
:1021D000032807D1354808380068C0F3406048B983
:1021E0000120AEE7314808380068C0F3400008B964
:1021F0000120A6E72D48006820F00300616808432D
:102200002A490860FFF78CFE064609E0FFF788FEC2
:10221000801B41F28831884202D9032091E707E010
:102220002248006800F00C006168B0EB810FEDD12E
:102230001D48006800F00700A84209D91A490D702E
:102240000846006800F00700A84201D0012078E7A6
:10225000207800F00400042807D11448006820F416
:10226000E050E168084311490860207800F0080058
:10227000082808D10D48006820F46040216940EA30
:10228000C1000A49086000F061F808490968C1F313
:102290000311074A515CC8400649086006480068B7
:1022A000FFF76EFE00204CE7003C02400838024079
:1022B00030AC000860010020580100200F220260AD
:1022C0000D4A126802F0030242600B4A126802F0E3
:1022D000F0028260084A126802F4E052C260064AC4
:1022E000126802F46042D2080261044A126802F0E5
:1022F00007020A607047000008380240003C0240B4
:1023000001480068704700006001002000B5FFF739
:10231000F7FF04490968C1F38221034A515CC840B0
:1023200000BD00000838024040AC000800B5FFF7CF
:10233000E7FF04490968C1F34231034A515CC840D0
:1023400000BD00000838024040AC00082DE9F0470D
:10235000002400250026A1462548006800F00C0056
:1023600020B1042805D008283AD105E0DFF8849090
:1023700039E0DFF8849036E01D48001F006800F067
:102380003F041B48001F006800F4800078B11A4821
:102390001749091F0968C1F38811A0FB01700146A4
:1023A000224600233846FDF76DFF05460EE0114832
:1023B0000F49091F0968C1F38811A0FB017001468C
:1023C000224600233846FDF75DFF05460848001FFA
:1023D0000068C0F30140401C4600B5FBF6F902E07E
:1023E000DFF8109000BF00BF4846BDE8F08700004E
:1023F000083802400024F40040787D01F8B5044616
:102400000CB90120F8BD207800F00100002874D03C
:10241000F948006800F00C0004280DD0F648006868
:1024200000F00C00082813D1F348001F006800F4E6
:102430008000B0F5800F0BD1EF4808380068C0F37A
:102440004040002859D06068002856D10120D9E7C3
:1024500000BF6068B0F5803F08D1E74808380068E1
:1024600040F48030E449083908601EE06068B0F547
:10247000A02F0DD1E0480838006840F48020DE49E4
:10248000083908600846006840F4803008600CE0B5
:10249000D9480838006820F48030D74908390860E6
:1024A0000846006820F48020086000BF606890B192
:1024B000FFF736FD054606E0FFF732FD401B6428B6
:1024C00001D903209EE7CC4808380068C0F340409B
:1024D0000028F1D011E0FFF723FD054606E0FFF7E5
:1024E0001FFD401B642801D903208BE7C248083830
:1024F0000068C0F340400028F1D1207800F00200CD
:1025000002285FD1BC48006800F00C0058B1BA48FE
:10251000006800F00C0008281CD1B748001F0068B4
:1025200000F48000B0B9B44808380068C0F3400037
:1025300020B1E068012801D0012063E7AE480838E7
:10254000006820F0F800216940EAC100AA49083972
:10255000086037E0E06800B30120A8490860FFF791
:10256000DFFC054606E0FFF7DBFC401B022801D933
:10257000032047E7A04808380068C0F3400000285F
:10258000F1D09D480838006820F0F800216940EA41
:10259000C10099490839086014E000209749086093
:1025A000FFF7BEFC054606E0FFF7BAFC401B022819
:1025B00001D9032026E7904808380068C0F340009E
:1025C0000028F1D1207800F0080008282CD160699B
:1025D000A8B101208A490860FFF7A2FC054606E081
:1025E000FFF79EFC401B022801D903200AE782481E
:1025F0006C300068C0F340000028F1D014E00020E7
:102600007F490860FFF78CFC054606E0FFF788FC71
:10261000401B022801D90320F4E677486C3000689B
:10262000C0F340000028F1D1207800F00400042815
:1026300070D1002770483830006800F0805090B9A1
:1026400000BF002000906C483830006840F0805097
:102650006949383108600846006800F080500090F1
:1026600000BF00BF01276748006800F48070B0B960
:102670006448006840F4807062490860FFF750FCCD
:10268000054606E0FFF74CFC401B022801D9032059
:10269000B8E65C48006800F480700028F2D000BF03
:1026A000A068012808D154486830006840F0010053
:1026B0005149683108601DE0A06805280DD14E48D9
:1026C0006830006840F004004B49683108600846F3
:1026D000006840F0010008600CE04748683000687E
:1026E00020F001004449683108600846006820F085
:1026F0000400086000BFA068A8B1FFF711FC054600
:1027000009E0FFF70DFC401B41F28831884202D9F5
:10271000032077E626E0384868300068C0F34000C0
:102720000028EED013E0FFF7FBFB054608E0FFF7BB
:10273000F7FB401B41F28831884201D9032061E652
:102740002D4868300068C0F340000028EFD1012F09
:1027500007D129483830006820F0805026493831A8
:10276000086000BFA069002845D02348006800F039
:102770000C0008285DD0A069022845D100201F491F
:102780000866FFF7CDFB054606E0FFF7C9FB401BD7
:10279000022801D9032035E6174808380068C0F33D
:1027A00040600028F1D1D4E907010843616A40EA9A
:1027B00081110122A06AC2EB500041EA00412C20A5
:1027C000005D41EA00600C49091F086001200B49C7
:1027D0000866FFF7A5FB054606E0FFF7A1FB401BD7
:1027E000022801D903200DE6034808380068C0F329
:1027F00040600028F1D049E008380240000047421C
:10280000800E474200700040002021490866FFF713
:1028100087FB054606E0FFF783FB401B022801D932
:102820000320EFE51B480068C0F340600028F2D1A8
:102830002CE0A069012800D1E4E51648001D0668D7
:10284000A069012820D006F48001E06981421BD1F3
:1028500006F03F01206A814216D147F6C070304031
:10286000616AB0EB811F0FD106F440310122A06AEA
:10287000C2EB5000B1EB004F06D106F070612C2086
:10288000005DB1EB006F01D00120BBE50020B9E590
:1028900000004742003802407047704730B502469A
:1028A0000B4600BF92F83C00012801D1022030BD48
:1028B000012082F83C0000BF022082F83D00106831
:1028C00044681068816824F0700418680443106834
:1028D0004460184D1068A8421BD01068B0F1804FBA
:1028E00017D0154D1068A84213D0144D1068A84297
:1028F0000FD0134D1068A8420BD0124D1068A8429B
:1029000007D0114D1068A84203D0104D1068A8429E
:1029100005D121F0800158680143106881600120D1
:1029200082F83D0000BF002082F83C0000BF00BFDD
:10293000BDE7000000000140000400400008004026
:10294000000C00400004014000400140001800401D
:1029500010B504460CB9012010BD94F83D0028B90B
:10296000002084F83C00204600F026F8022084F87D
:102970003D00211D206801F05BFE012084F8460027
:1029800000BF84F83E0001213F2001554020015541
:102990004120015500BF00BF012084F842004320C0
:1029A0000155442001554520015500BF012084F800
:1029B0003D000020D0E7000008B50168B1F1804F6C
:1029C0000FD100BF002100910649096841F00101C3
:1029D000044A11601146096801F00101009100BF2D
:1029E00000BF08BD40380240014691F83D00012873
:1029F00001D001207047022081F83D000868C068BE
:102A000040F001000B68D8601A4B086898421BD050
:102A10000868B0F1804F17D0174B0868984213D060
:102A2000164B086898420FD0154B086898420BD097
:102A3000144B0868984207D0134B0868984203D09B
:102A4000124B086898420CD10868806800F00702B1
:102A5000062A0CD00868006840F001000B68186076
:102A600005E00868006840F001000B68186000206D
:102A7000C0E70000000001400004004000080040E2
:102A8000000C0040000401400040014000180040DC
:102A90002DE9F04104460D46002700BF94F83C00A4
:102AA000012802D10220BDE8F081012084F83C0019
:102AB00000BF022084F83D002068866826F0770673
:102AC00026F47F46206886602868502833D00CDCC6
:102AD000202850D004DC00284BD0102851D149E0E8
:102AE000302849D040284CD139E060282DD07028BA
:102AF00007D0B0F5805F03D0B0F5005F41D10DE0A5
:102B000041E0D5E902136A68206801F00EFE2068F2
:102B1000866846F077062068866034E0D5E90213BF
:102B20006A68206801F001FE2068806840F48040F7
:102B30002168886027E0EA686968206801F0E6FE9D
:102B40005021206801F0FCFD1DE0EA6869682068FA
:102B500001F0EFFE6021206801F0F2FD13E0EA6869
:102B60006968206801F0D2FE4021206801F0E8FD8C
:102B700009E000BF00BF00BF2968206801F0E0FD48
:102B800001E0012700BF00BF012084F83D0000BF25
:102B9000002084F83C0000BF384684E7704710B539
:102BA000044620680069C0F34000D8B12068C068BE
:102BB000C0F34000B0B16FF002002168086101204D
:102BC00020772068806900F0030018B12046FFF7E5
:102BD000E5FF05E0204600F0DBF8204600F08FF925
:102BE0000020207720680069C0F38000D8B12068F9
:102BF000C068C0F38000B0B16FF0040021680861C4
:102C0000022020772068806900F4407018B12046C7
:102C1000FFF7C4FF05E0204600F0BAF8204600F0B8
:102C20006EF90020207720680069C0F3C000D8B199
:102C30002068C068C0F3C000B0B16FF00800216820
:102C40000861042020772068C06900F0030018B1F3
:102C50002046FFF7A3FF05E0204600F099F8204644
:102C600000F04DF90020207720680069C0F30010C3
:102C7000D8B12068C068C0F30010B0B16FF0100088
:102C800021680861082020772068C06900F440703E
:102C900018B12046FFF782FF05E0204600F078F8E3
:102CA000204600F02CF9002020772068006900F011
:102CB000010058B12068C06800F0010030B16FF029
:102CC000010021680861204600F0A0F92068006931
:102CD000C0F3C01058B12068C068C0F3C01030B154
:102CE0006FF08000216808612046FFF7D5FD20685D
:102CF0000069C0F3801058B12068C068C0F380102C
:102D000030B16FF0400021680861204600F08AF978
:102D100020680069C0F3401058B12068C068C0F353
:102D2000401030B16FF02000216808612046FFF7A5
:102D3000B4FD10BD10B586B00446142101A8FDF7FE
:102D40001CFB2068B0F1804F1BD100BF0020009019
:102D50000D48006840F001000B4908600846006813
:102D600000F00100009000BF00BF0220019002901F
:102D70000020039004900120059001A90348FEF76C
:102D8000C7FF06B010BD000030380240000002400E
:102D900070472DE9F04104460D461646002700BF56
:102DA00094F83C00012802D10220BDE8F081012006
:102DB00084F83C0000BF36B1042E1BD0082E31D061
:102DC0000C2E5ED145E02946206801F0C3FC206846
:102DD000806940F00800216888612068806920F0DF
:102DE0000400216888612068806929690843216896
:102DF000886148E02946206801F0E4FC2068806989
:102E000040F40060216888612068806920F4806057
:102E10002168886120688069296940EA0120216869
:102E2000886130E02946206801F00AFD2068C06909
:102E300040F008002168C8612068C06920F00400E3
:102E40002168C8612068C069296908432168C86190
:102E500019E02946206801F02FFD2068C06940F480
:102E600000602168C8612068C06920F48060216822
:102E7000C8612068C069296940EA01202168C861E9
:102E800001E0012700BF00BF00BF002084F83C0024
:102E900000BF384689E710B504460CB9012010BDC3
:102EA00094F83D0028B9002084F83C00204600F04A
:102EB00025F8022084F83D00211D206801F0B8FBB0
:102EC000012084F8460000BF84F83E0001213F2025
:102ED0000155402001554120015500BF00BF012090
:102EE00084F84200432001554420015545200155F6
:102EF00000BF012084F83D000020D0E770477047F4
:102F000070B504460D4615B994F83E000BE0042D4B
:102F100002D13F20005D06E0082D02D14020005D77
:102F200001E04120005D012801D0012070BD1DB9E4
:102F3000022084F83E000EE0042D03D102213F2040
:102F4000015508E0082D03D102214020015502E07F
:102F500002214120015501222946206801F0D4FBBD
:102F600023492068884203D022492068884201D141
:102F7000012000E0002028B12068406C40F40040AF
:102F8000216848641A49206888421BD02068B0F143
:102F9000804F17D018492068884213D017492068FD
:102FA00088420FD01649206888420BD0114920680A
:102FB000884207D013492068884203D0124920680C
:102FC00088420CD12068806800F00706062E0CD0DD
:102FD0002068006840F001002168086005E0206872
:102FE000006840F001002168086000209EE70000B2
:102FF00000000140000401400004004000080040BF
:10300000000C0040004001400018004010B504468C
:1030100003492068884201D1FEF788FF10BD0000F7
:10302000000001407047704770B5044600252068D5
:103030004069C0F3C01594F83D00212817D1B5B1FF
:1030400000BF00BF2168143151E8001F21F080004B
:103050002168143141E80002002AF3D100BF606BFF
:1030600010B1606BFEF7F5FB204601F05FFD2068B4
:103070004069C0F3801594F83E00222817D1B5B1FD
:1030800000BF00BF2168143151E8001F21F040004B
:103090002168143141E80002002AF3D100BFA06B7F
:1030A00010B1A06BFEF7D5FB204601F0F9FC002023
:1030B00070BD70472DE9F84F044620680568206808
:1030C000C668206847694FF00009CA4605F00F0935
:1030D000B9F1000F0AD105F0200038B106F0200048
:1030E00020B1204601F035FDBDE8F88FB9F1000FA1
:1030F0007CD007F0010018B906F49070002875D054
:1031000005F0010030B106F4807018B1206C40F079
:103110000100206405F0040030B107F0010018B18F
:10312000206C40F00200206405F0020030B107F08E
:10313000010018B1206C40F00400206405F0080084
:1031400048B106F0200010B907F0010018B1206C5A
:1031500040F008002064206C002846D005F02000D4
:1031600028B106F0200010B1204601F0F2FC2068E2
:103170004069C0F3801A206C00F0080010B9BAF161
:10318000000F2DD0204601F08BFC2068406900F034
:103190004000402820D100BF00BF2168143151E811
:1031A000001F21F040002168143141E80002002A8C
:1031B000F3D100BFA06B50B17548A16B0865A06B3F
:1031C000FEF79DFB88B1A06B016D88470DE020469E
:1031D000FFF76FFF09E009E02046FFF76AFF04E010
:1031E0002046FFF766FF002020647DE7206B012862
:1031F00076D105F01000002872D006F010000028EB
:10320000FAD000BF0020009020680068009020687D
:103210004068009000BF00BF2068406900F0400097
:1032200040285ED1A06B006840681FFA80F8B8F1B2
:10323000000F54D0A08D404551DDA4F82E80A06B26
:10324000C069B0F5807F43D000BF00BF21680C315A
:1032500051E8001F21F4807021680C3141E8000220
:10326000002AF3D100BF00BF00BF2168143151E82C
:10327000001F21F001002168143141E80002002AFA
:10328000F3D100BF00BF00BF2168143151E8001F17
:1032900021F040002168143141E80002002AF3D1F6
:1032A00000BF202084F83E000020206300BF00BF44
:1032B00021680C3151E8001F21F0100021680C3109
:1032C00041E80002002AF3D100BFA06BFEF7C1FA6B
:1032D000A08DE28D801A81B22046FFF7A4FE03E79D
:1032E00040E0A08DE18D401A1FFA80F8E08DC0B358
:1032F000B8F1000F35D000BF00BF21680C3151E894
:10330000001F21F4907021680C3141E80002002A6E
:10331000F3D100BF00BF00BF2168143151E8001F86
:1033200021F001002168143141E80002002AF3D1A4
:1033300000BF202084F83E000020206300BF00BFB3
:1033400021680C3151E8001F21F0100021680C3178
:1033500041E80002002AF3D100BF41462046FFF7B2
:1033600062FEC1E605F0800030B106F0800018B1C1
:10337000204601F0E9FDB7E605F0400030B106F067
:10338000400018B1204601F0C1FBADE600BFABE63E
:103390006D49000810B504460CB9012010BDA069A4
:1033A00000B100E000BF94F83D0028B9002084F887
:1033B0003C00204600F028F8242084F83D002068D6
:1033C000C06820F400502168C860204601F03EFC2F
:1033D0002068006920F490402168086120684069F5
:1033E00020F02A00216848612068C06840F400503D
:1033F0002168C86000202064202084F83D0084F803
:103400003E000020CAE7000010B586B00446142133
:1034100001A8FCF7B2FF6249206888425AD100BF78
:10342000002000905F48006840F400205D4908607B
:103430000846006800F40020009000BF00BF00BFF5
:103440000020009057481038006840F004005549AB
:10345000103908600846006800F00400009000BFC2
:1034600000BF4FF4406001900220029000200390C2
:10347000032004900820059001A94B48FEF748FC62
:103480004A484B4908604FF0006048604021484876
:1034900081600021C1604FF48061016100214161C0
:1034A0008161C1614FF44031016200214162FEF748
:1034B0005BFB08B1FDF7FEFB00BF3D486063846322
:1034C00000BF002205213420FEF7E4FD3420FEF782
:1034D000D1FD62E03749206888425ED100BF0020FC
:1034E00000903048006840F400302E4908600846DB
:1034F000006800F40030009000BF00BF00BF002053
:10350000009028481038006840F001002549103923
:1035100008600846006800F00100009000BF00BF8E
:103520000C200190022002900020039003200490C0
:103530000720059001A92048FEF7EAFB1B48183038
:103540001E4908604FF00060486000211B48816000
:10355000C1604FF4806101610021416181614FF4DC
:103560008071C161002101620421416203218162F5
:103570000021C1620163FEF7F7FA08B1FDF79AFB7B
:1035800000BF0E48A063846300BF002205212620EF
:10359000FEF780FD2620FEF76DFD06B010BD000091
:1035A000004C004040380240000802407060024079
:1035B0004C0A00200044004000000240AC0A0020F9
:1035C00070B504460D46164694F83E00202816D1E4
:1035D00005B10EB9012070BD00BF94F83C00012870
:1035E00001D10220F7E7012084F83C0000BF002051
:1035F000206332462946204601F03EFCEBE70220DC
:10360000E9E7704770472DE9F84F04460E46174624
:1036100099464FF0000A94F83D0020285AD106B18F
:1036200017B90120BDE8F88F00BF94F83C000128CD
:1036300001D10220F6E7012084F83C0000BF002001
:103640002064212084F83D00FEF76AFC8246A784AE
:10365000E784A068B0F5805F04D1206910B9002527
:10366000B04602E035464FF0000800BF002084F865
:103670003C0000BF1BE05346002280212046CDF8CD
:10368000009001F091FC08B10320CBE745B9B8F8F0
:103690000000C0F308002168486008F1020803E058
:1036A0002878216848606D1CE08C401EE084E08C26
:1036B0000028E0D15346002240212046CDF800905A
:1036C00001F072FC08B10320ACE7202084F83D0033
:1036D0000020A7E70220A5E7704700BFFEE7000033
:1036E00010B5002280210C48FEF714FC00F016F8FB
:1036F000012240210848FEF70DFC00F00FF80022DF
:1037000040210548FEF706FC00F008F80122802160
:103710000148FEF7FFFB10BD00040240002001E05D
:10372000411CC8B20A28FBDB7047000000B587B017
:1037300000BF002001900D48006840F002000B49D6
:1037400008600846006800F00200019000BF00BF5A
:10375000C0200290022005901120039002A9044885
:10376000FEF7D6FA00F09AF807B000BD30380240F4
:103770000004024010B5012280210A48FEF7CAFB6E
:10378000FFF7CCFF012240210648FEF7C3FBFFF7FD
:10379000C5FF002240210348FEF7BCFBFFF7BEFF38
:1037A00010BD00000004024070B50546002400264C
:1037B00018E06006040E012240210F48FEF7AAFB24
:1037C000FFF7ACFF80210C48FEF79CFB08B1601CA2
:1037D000C4B2002240210848FEF79CFBFFF79EFF81
:1037E000701CC6B2082EE4DB15B9FFF7C3FF01E079
:1037F000FFF776FF204670BD0004024070B5044616
:10380000002528E004F0800028B10122802113481F
:10381000FEF780FB04E0002280211048FEF77AFBCF
:10382000FFF77CFF012240210C48FEF773FBFFF7F6
:1038300075FF002240210948FEF76CFB072D04D1DB
:10384000012280210548FEF765FB6006040EFFF7A4
:1038500065FF681CC5B2082DD4DB70BD00040240B2
:1038600010B5012280210C48FEF754FB01224021B3
:103870000948FEF74FFBFFF751FF00228021064861
:10388000FEF748FBFFF74AFF002240210248FEF7FF
:1038900041FBFFF743FF10BD0004024010B50022BA
:1038A00080210848FEF736FB012240210548FEF73B
:1038B00031FBFFF733FF012280210248FEF72AFB8C
:1038C00010BD00000004024010B5012280210E4806
:1038D000FEF720FBFFF722FF012240210A48FEF7F6
:1038E00019FBFFF71BFF80210748FEF70BFB08B110
:1038F000012400E00024002240210348FEF70AFBD7
:10390000FFF70CFF204610BD0004024000BF052059
:1039100005F09AF900BF0A4A0A490B4804F09EF8DC
:103920000028F8D1094A0A490A4800F01BF80A4A57
:103930000A490B4800F03EF8012005F085F9E6E75A
:103940000401002000010020FC0000200C010020E8
:103950000A010020080100201201002010010020AF
:103960000E0100202DE9FC4104460D4616466B462B
:1039700006223B21682000F09FF80746BFB99DF85A
:1039800001009DF8001040EA012000B220809DF85F
:1039900003009DF8021040EA012000B228809DF843
:1039A00005009DF8041040EA012000B2308038463E
:1039B000BDE8FC812DE9FC4104460D4616466B46E8
:1039C00006224321682000F077F80746BFB99DF82A
:1039D00001009DF8001040EA012000B220809DF80F
:1039E00003009DF8021040EA012000B228809DF8F3
:1039F00005009DF8041040EA012000B230803846EE
:103A0000BDE8FC8110B5FFF791FE80216B2000F02E
:103A1000D7F86420FEF768F900216B2000F0D0F899
:103A2000032000F08BF8002000F080F8322000F036
:103A3000AAF80021382000F0C3F800216A2000F025
:103A4000BFF80021232000F0BBF88021372000F0D0
:103A5000B7F8752000F013F80446682C0BD101214B
:103A60006B2000F0ADF800216C2000F0A9F83220A6
:103A700000F089F801E0012010BD0020FCE770B5DE
:103A80000446FFF7EDFED020FFF7B8FEFFF71CFF5E
:103A90002046FFF7B3FEFFF717FFFFF7E1FED12047
:103AA000FFF7ACFEFFF710FF0020FFF77DFE054695
:103AB000FFF7F4FE284670BD2DE9F04106460F469B
:103AC00014461D46FFF7CCFE002141EA4601C8B26C
:103AD000FFF794FEFFF7F8FE20B1FFF7DFFE0120AD
:103AE000BDE8F0813846FFF789FEFFF7EDFEFFF7EE
:103AF000B7FE012101EB4601C8B2FFF77FFEFFF7D9
:103B0000E3FE0DE0012C04D10020FFF74DFE2870EC
:103B100003E00120FFF748FE2870601EC4B26D1C50
:103B2000002CEFD1FFF7BAFE0020D9E710B504460C
:103B3000E006010E1C2000F043F810BD10B504464D
:103B4000E006010E1B2000F03BF810BD70B50446E6
:103B50000025BC2C01DB012510E0622C01DB0225D5
:103B60000CE02A2C01DB032508E0142C01DB0425E2
:103B700004E00A2C01DB052500E0062529461A2071
:103B800000F01EF870BD70B50446B4F57A7F01DD13
:103B90004FF47A74042C00DA04244FF47A7090FB0A
:103BA000F4F0401EC5B22946192000F009F8054678
:103BB000264604EBD671C1F34F00FFF7C7FF70BD77
:103BC00070B505460C46FFF74BFED020FFF716FEFA
:103BD000FFF77AFE18B1FFF761FE012070BD28469D
:103BE000FFF70CFEFFF770FE2046FFF707FEFFF71A
:103BF0006BFE18B1FFF752FE0120EFE7FFF74EFE14
:103C00000020EBE72DE9F04105460E4617469846A1
:103C1000FFF726FE002141EA4501C8B2FFF7EEFD9D
:103C2000FFF752FE20B1FFF739FE0120BDE8F08119
:103C30003046FFF7E3FDFFF747FE00240CE018F8DD
:103C40000400FFF7DBFDFFF73FFE18B1FFF726FE8C
:103C50000120EBE7601CC4B2BC42F0DBFFF71EFEA4
:103C60000020E3E710B50F480F49086006204860C0
:103C700000210D488160C1604FF4403101614FF473
:103C80008011416100210176012141760021817678
:103C9000C17601774177FDF7AEFB08B1FDF70AF871
:103CA00010BD0000006400402C09002010B50F4832
:103CB0000F4908600620486000210D488160C160FE
:103CC0004FF4403101614FF48011416100210176D0
:103CD000012141768176C176002101774177FDF798
:103CE0008AFB08B1FCF7E6FF10BD00000068004049
:103CF0005409002008B500BF002000900E4800685D
:103D000040F400100C4908600846006800F40010F8
:103D1000009000BF00BF002205210F20FEF7BAF976
:103D20000F20FEF7A7F9002205211020FEF7B2F9B7
:103D30001020FEF79FF908BD3038024000B5C3B02F
:103D40003C4B0FCB42933FAB07C300213FA804F08D
:103D50008CFF394908601C223649103138A8FCF71D
:103D6000F3FA002138A804F094FF344908601C22BB
:103D700030492C3131A8FCF7E7FA002131A804F0D2
:103D800088FF2F4908601C222A4948312AA8FCF7DD
:103D9000DBFA00212AA804F07CFF2A4908601C22D3
:103DA0002449643123A8FCF7CFFA002123A804F0AA
:103DB00070FF254908601C221E4980311CA8FCF7B1
:103DC000C3FA00211CA804F064FF204908601C22EB
:103DD00018499C3115A8FCF7B7FA002115A804F082
:103DE00058FF1B4908601C221249B8310EA8FCF785
:103DF000ABFA00210EA804F04CFF164908601C2203
:103E00000C49D43107A8FCF79FFA002107A804F059
:103E100040FF114908601C220649F0316846FCF752
:103E200093FA0021684604F034FF0C49086043B05F
:103E300000BD00001CAB0008400100201C01002058
:103E40002001002024010020280100202C01002056
:103E50003001002034010020380100203C01002006
:103E600000B587B0142102A8FCF787FA00BF002034
:103E700001904348006840F004004149086008464A
:103E8000006800F00400019000BF00BF00BF0020E8
:103E900001900846006840F080000860084600680D
:103EA00000F08000019000BF00BF00BF0020019023
:103EB0000846006840F0010008600846006800F00D
:103EC0000100019000BF00BF00BF00200190084624
:103ED000006840F0020008600846006800F0020038
:103EE000019000BF00BF00BF00200190084600689D
:103EF00040F0080008600846006800F008000190E3
:103F000000BF00BF0022C0211E48FEF703F84FF299
:103F1000FF300290032003900020049002A91A4869
:103F2000FDF7F6FE48F2F1700290032003900020A6
:103F3000049002A91548FDF7EBFE4CF63F70029085
:103F4000032003900020049002A90E48FDF7E0FE34
:103F500004200290032003900020049002A90C4842
:103F6000FDF7D6FEC020029011200390002004909F
:103F70000220059002A90348FDF7CAFE07B000BD64
:103F800030380240000402400008024000000240B5
:103F9000000C024000B58DB0002009900A900B90F3
:103FA0000C90079008901C216846FCF7E6F94FF04A
:103FB00080401F4908609F20486000211C488160A4
:103FC00040F2CF71C160002101618161FEF7C0FC48
:103FD00008B1FCF76FFE4FF48050099009A914480E
:103FE000FEF756FD08B1FCF765FE1148FEF753FFDA
:103FF00008B1FCF75FFE00200790089007A90C4865
:10400000FEF74CFC08B1FCF755FE60200090002044
:10401000019002900490042269460548FEF7B9FE1B
:1040200008B1FCF747FE0248FEF784FE0DB000BD64
:104030007C09002010B50B480B4908604FF4E130B3
:104040004860002108488160C16001610C21416124
:1040500000218161C161FFF79DF908B1FCF72AFEDB
:1040600010BD0000004C0040C409002010B50C48F1
:104070000C4908600C4848604FF480510948816041
:104080000021C1604FF4806101610C214161002178
:104090008161C161FFF77EF908B1FCF70BFE10BD2D
:1040A00000440040080A0020A086010000BFFEE78F
:1040B00000BFFEE710B52DED048B0446B0EE408A3C
:1040C000F0EE608A002009EE100A24B99FED9E0AE6
:1040D000BDEC048B10BD06F045FB9C49086094EDD7
:1040E000100A84ED110A94ED0F0A84ED100AC4ED54
:1040F000068A84ED078A38EEC80A84ED0F0A94ED2B
:104100000F0A9348D0ED000AB4EEE00AF1EE10FA7F
:1041100010D294ED0F0AD0ED000AF1EE600AB4EE71
:10412000E00AF1EE10FA05DDF0EE488A9FED860A0E
:1041300084ED0F0A207800287ED194ED010AD4ED99
:104140000F0A20EE200A84ED090A804800688149A0
:104150000968401A142827DA94ED0F0AF7EE080AC6
:10416000B4EEE00AF1EE10FA03D2012009EE100AD3
:104170000BE094ED0F0AFFEE080AB4EEE00AF1EE50
:1041800010FA02DD012009EE100A94ED020AD4EDC6
:104190000F0A60EE200A94ED0A0AB8EEC91A00EE82
:1041A000810A84ED0A0A03E09FED670A84ED0A0A9A
:1041B00094ED0D0A84ED0E0A94ED0C0A84ED0D0ABF
:1041C00094ED0F0AD4ED100A30EE600A84ED0C0A6B
:1041D00094ED030AD4ED0C0A20EE200A84ED0B0ABC
:1041E00094ED0A0AD4ED050AB4EEE00AF1EE10FAF5
:1041F00004DD94ED050A84ED0A0A10E094ED0A0A44
:10420000D4ED050AF1EE600AB4EEE00AF1EE10FA20
:1042100005D294ED050AB1EE400A84ED0A0A94ED48
:10422000090AD4ED0A0A30EE200AD4ED0B0A30EE6A
:10423000200A84ED080A00E01FE094ED080AD4ED9E
:10424000040AB4EEE00AF1EE10FA04DD94ED040A7B
:1042500084ED080A75E094ED080AD4ED040AF1EE45
:10426000600AB4EEE00AF1EE10FA6AD294ED040AA4
:10427000B1EE400A84ED080A63E02078012860D19D
:1042800094ED0F0AD4ED100A30EE600AD4ED010A65
:1042900020EE200A84ED090A94ED020AD4ED0F0AFB
:1042A00020EE200A84ED0A0A94ED0D0A84ED0E0A30
:1042B00094ED0C0A84ED0D0A94ED0F0AD4ED100A6A
:1042C000B0EE001A01EE600AD4ED110A30EE200AB9
:1042D00084ED0C0A94ED030AD4ED0C0A20EE200ABA
:1042E00084ED0B0A94ED090AD4ED0A0A30EE200A97
:1042F000D4ED0B0A30EE200AD4ED080A30EE200A85
:1043000084ED080A94ED080AD4ED040AB4EEE00A3C
:10431000F1EE10FA04DD94ED040A84ED080A10E0D1
:1043200094ED080AD4ED040AF1EE600AB4EEE00A56
:10433000F1EE10FA05D294ED040AB1EE400A84EDD4
:10434000080A94ED080AC3E600000000E801002016
:10435000E40100206401002000B102B9704701703F
:1043600092ED001A80ED011A92ED011A80ED021A09
:1043700092ED021A80ED031A80ED040AC0ED050AE1
:104380009FED0C1A80ED0E1A80ED0D1A80ED0C1ABF
:104390009FED081A80ED081A80ED0B1A80ED0A1ABD
:1043A00080ED091A80ED111A80ED101A80ED0F1AB8
:1043B00000BFD3E70000000000BF012004F044FC70
:1043C000FBE7000008B500BF3348407A01280AD156
:1043D000FA2032490968886331480068A8B1002092
:1043E0002F49086011E02C48407A032805D140F29B
:1043F00092402A490968886307E02748407A0228E2
:1044000003D141F27070264908602348007A0128E0
:104410001CD124490860084600684FF4A261484353
:1044200021490968484300EE100AB8EEC00A1F4847
:10443000D0ED000A30EEC00A80ED000A06F092F9D5
:1044400000903221684605F099FC21E01248007A7C
:10445000032806D100201349086001201449086090
:1044600016E00D48007A022812D1114800684FF476
:10447000A261484300EE100AB8EEC00A0B48D0ED26
:10448000000A30EEC00A80ED000A002008490860EA
:10449000022004F0D9FB97E7B00600207C09002039
:1044A0009800002090000020A800002018010020A3
:1044B000940000201FB500BF052004F0C5FB15487F
:1044C000B0F90C0000EE100AB8EEC00A8DED010A3A
:1044D000114890ED000AB8EEC00A8DED020A0D48B1
:1044E000B0F9160000EE100AB8EEC00A8DED030A0E
:1044F0004FF6FF730C2201A90848FFF784F808A0C3
:10450000006800904FF6FF73042269460348FFF7E6
:104510007AF8D1E7540B002098000020C40900204D
:104520000000807F10B500BF502080F31188BFF3DA
:104530004F8FBFF36F8F00BF06F01AF918B14FF01D
:1045400080500449086000BF002080F3118800BF3C
:1045500010BD000004ED00E000B593B0302107A8C5
:10456000FBF70BFF142102A8FBF707FF00BF002099
:1045700001902448006840F08050224908600846B5
:10458000006800F08050019000BF00BF00BF002015
:1045900001901D48006840F480401B4908600846AF
:1045A000006800F48040019000BF00BF0120079028
:1045B0000004089002200D9041050E9119210F91E1
:1045C0004FF4A8711091022111910421129107A8B2
:1045D000FDF714FF08B1FCF76DFB0F2002900220DD
:1045E0000390002004904FF4A05005904FF48050A9
:1045F0000690052102A8FDF79FFD08B1FCF75AFBC4
:1046000013B000BD4038024000700040034800680D
:1046100040F47000014908607047000088ED00E038
:1046200010B50248FEF7BBFA10BD00000C0B0020CD
:1046300010B50268294B98420ED0B0F1804F0BD0D4
:10464000274B984208D0274B984205D0264B9842DA
:1046500002D0264B984203D122F070024B681A43D5
:104660001E4B984220D0B0F1804F1DD01C4B984279
:104670001AD01C4B984217D01B4B984214D01B4B9E
:10468000984211D01A4B98420ED01A4B98420BD038
:10469000194B984208D0194B984205D0184B9842B4
:1046A00002D0184B984203D122F44072CB681A43CF
:1046B00022F080034C6943EA040202608B68C36203
:1046C0000B688362054B984202D0084B984201D197
:1046D0000B6903630123436110BD0000000001402A
:1046E0000004004000080040000C004000040140AD
:1046F00000400140004401400048014000180040D3
:10470000001C00400020004030B501F01F050124CE
:1047100004FA05F3046A9C430462046A01F01F056D
:1047200002FA05F52C43046230BD30B50C468168B1
:1047300021F47F4142EA032525432943816030BDAE
:104740000A46816821F0700142F007031943816035
:104750007047000030B5056A25F001050562026A60
:104760004368846924F0700424F003040D682C432A
:1047700022F002028D682A43104DA84200D103E0C6
:104780000F4DA84206D100BF22F00802CD682A438F
:1047900022F00402094DA84202D0094DA84207D1D7
:1047A00023F4807323F400734D692B438D692B43ED
:1047B000436084614D684563026230BD0000014082
:1047C0000004014030B5056A25F010050562026A53
:1047D0004368846924F4E04424F440740D6844EA96
:1047E000052422F020028D6842EA0512124DA842EB
:1047F00000D103E0114DA84207D100BF22F0800292
:10480000CD6842EA051222F040020B4DA84202D0C8
:104810000A4DA84209D123F4806323F400634D6953
:1048200043EA85038D6943EA8503436084614D68EB
:104830008563026230BD00000000014000040140B9
:1048400030B5056A25F480750562026A4368C4695B
:1048500024F0700424F003040D682C4322F4007249
:104860008D6842EA0522124DA84200D103E0114DA5
:10487000A84207D100BF22F40062CD6842EA0522B7
:1048800022F480620A4DA84202D00A4DA84209D102
:1048900023F4805323F400534D6943EA05138D69D3
:1048A00043EA05134360C4614D68C563026230BDCD
:1048B000000001400004014030B5056A25F4805530
:1048C0000562036A4468C26922F4E04222F440723D
:1048D0000D6842EA052223F400538D6843EA05334C
:1048E000084DA84202D0084DA84204D124F48044C7
:1048F0004D6944EA85144460C2614D6805640362F1
:1049000030BD0000000001400004014030B50B46FE
:104910001446026A056A25F001050562816921F0E5
:10492000F00141EA041122F00A021A438161026295
:1049300030BD30B50B461446056A25F010050562FA
:104940008169026A21F4704141EA043122F0A00237
:1049500042EA03128161026230BD000010B50248D4
:10496000FEF7A8FB10BD0000C409002070B5054685
:10497000AC6B0020E085E0842046FEF79AFB70BD1A
:1049800070B506460025B46B20684069C0F3C015B9
:1049900094F83D00212805D125B10020E08420466F
:1049A00000F0C4F820684069C0F3801594F83E0018
:1049B000222805D125B10020E085204600F070F8BE
:1049C000206C40F0100020642046FEF772FB70BDA2
:1049D00070B50546AC6B2868006800F4807000284C
:1049E00042D1E08500BF00BF21680C3151E8001FB3
:1049F00021F4807021680C3141E80002002AF3D1D3
:104A000000BF00BF00BF2168143151E8001F21F032
:104A100001002168143141E80002002AF3D100BFEF
:104A200000BF00BF2168143151E8001F21F0400091
:104A30002168143141E80002002AF3D100BF202090
:104A400084F83E00206B01280ED100BF00BF216812
:104A50000C3151E8001F21F0100021680C3141E8B1
:104A60000002002AF3D100BF206B012804D1A18DE0
:104A70002046FEF7D8FA02E02046FEF7C2FD70BDE0
:104A800070B50546AC6B206B012805D1A08D41089F
:104A90002046FEF7C8FA02E02046FEF7B3FD70BDDF
:104AA00000BF00BF02680C3252E8002F22F4907160
:104AB00002680C3242E80013002BF3D100BF00BFA4
:104AC00000BF0268143252E8002F22F00101026890
:104AD000143242E80013002BF3D100BF016B01290F
:104AE0000ED100BF00BF02680C3252E8002F22F046
:104AF000100102680C3242E80013002BF3D100BF12
:104B0000202180F83E1000210163704710B5044653
:104B10002068C06820F040002168C860202084F828
:104B20003D002046FEF7D8FD002010BD00BF00BFAD
:104B300002680C3252E8002F22F0C00102680C32E9
:104B400042E80013002BF3D100BF202180F83D1074
:104B50007047F8B5044694F83E00222873D1A06847
:104B6000B0F5805F0CD1206950B90025A66A206895
:104B70004068C0F308003080A06A801CA06215E085
:104B8000A56A0026A068B0F5805F03D0A06828B9A8
:104B9000206918B920684068287004E020684068DF
:104BA00000F07F002870A06A401CA062E08D401ECB
:104BB00080B2E085002844D12068C06820F0200041
:104BC0002168C8602068C06820F480702168C860CF
:104BD0002068406920F0010021684861202084F8A5
:104BE0003E00206B012826D10020206300BF00BFBB
:104BF00021680C3151E8001F21F0100021680C31B0
:104C000041E80002002AF3D100BF2068006800F0EC
:104C1000100010280AD100BF002000902068006812
:104C2000009020684068009000BF00BFA18D204622
:104C3000FEF7F9F902E02046FEF7E3FC0020F8BD9C
:104C400001E00020FBE70220F9E700002DE9F84F22
:104C500004462068006920F44050E1680843216858
:104C600008612169A068084361690843E169084354
:104C700000902068C06849F20C618843009908439D
:104C80002168C8602068406920F44070A169084329
:104C90002168486176492068884203D075492068B8
:104CA000884203D1FDF742FB814602E0FDF72EFB6F
:104CB0008146E069B0F5004F6CD102206168A0FB2D
:104CC000015003461920A9FB007001462A463846C8
:104CD000FBF7D8FA6421B0FBF1F04FEA001A02208A
:104CE0006168A0FB01510B461920A9FB00712A46FF
:104CF0003846FBF7C7FA834602206168A0FB0150E3
:104D000003461920A9FB00712A463846FBF7BAFA78
:104D10006421B0FBF1F000EBC00101EB0010ABEB44
:104D20008000322101EBC0006421B0FBF1F000F003
:104D3000F8000AEB400A02206168A0FB015003461C
:104D40001920A9FB007001462A463846FBF79AFA5B
:104D5000834602206168A0FB015003461920A9FB8D
:104D600000712A463846FBF78DFA6421B0FBF1F05A
:104D700000EBC00101EB0010ABEB8000322101EB36
:104D8000C0006421B0FBF1F000F00700504421683E
:104D900088606AE004206168A0FB01500346192086
:104DA000A9FB007001462A463846FBF76BFA82469B
:104DB00004206168A0FB015003461920A9FB007084
:104DC00001462A463846FBF75DFA6421B0FBF1F054
:104DD00000EBC00101EB0010AAEB8000322101EBD7
:104DE00000106421B0FBF1F000F0F00A04206168CB
:104DF000A0FB017003461920A9FB00513A46284642
:104E0000FBF740FA6421B0FBF1F00AEB001A042032
:104E10006168A0FB01510B461920A9FB00712A46CD
:104E20003846FBF72FFA834604206168A0FB015047
:104E300003461920A9FB007001462A463846FBF7B5
:104E400021FA6421B0FBF1F000EBC00101EB00108E
:104E5000ABEB8000322101EB00106421B0FBF1F0DC
:104E600000F00F00504421688860BDE8F88F000012
:104E7000001001400014014077B581B0044615468A
:104E80000298A062A58500202064222084F83E00BC
:104E90002A48A16BC8632A48A16B08642948A16B02
:104EA000C8640020A16B086502AE32682368191D32
:104EB0002B46A06BFCF7CEFE00BF002000902068C0
:104EC0000068009020684068009000BF00BF00BFED
:104ED000002084F83C0000BF206970B100BF00BF13
:104EE00021680C3151E8001F41F4807021680C31B9
:104EF00041E80002002AF3D100BF00BF00BF2168D3
:104F0000143151E8001F41F001002168143141E8DB
:104F10000002002AF3D100BF00BF00BF2168143196
:104F200051E8001F41F040002168143141E80002BF
:104F3000002AF3D100BF002004B070BDD1490008A1
:104F4000814A000881490008014691F83D00212866
:104F500028D18868B0F5805F0BD1086948B90A6A22
:104F60001088C0F308000B685860086A801C08624B
:104F700005E00B6A581C086218780B685860C88CEA
:104F8000401E80B2C88458B90868C06820F080000C
:104F90000B68D8600868C06840F040000B68D860B3
:104FA000002070470220FCE72DE9F04104460D4641
:104FB00017469846069E34E0701C88B32EB1FCF765
:104FC000AFFFA0EB0800B0422BD900BF00BF2168A3
:104FD0000C3151E8001F21F4D07021680C3141E8F8
:104FE0000002002AF3D100BF00BF00BF21681431C6
:104FF00051E8001F21F001002168143141E800024E
:10500000002AF3D100BF202084F83D0084F83E0040
:1050100000BF002084F83C0000BF0320BDE8F08101
:10502000FFE7206800682840A84201D1012000E085
:105030000020B842C0D00020F0E7000008B51448B6
:1050400000680068C0F30010F0B100BF00200090BD
:105050000F480068006800900D48006840680090A4
:1050600000BF00BF0A48FDF7DFFF0A48006830B103
:1050700000231A4608490748006805F05BF9122228
:1050800005490348FEF79CFA0148FEF713F808BDEE
:10509000080A002040010020C406002000BFFEE7EF
:1050A0000FB4054B10B503A9044A029800F0CAFEDC
:1050B00010BC5DF814FB00008D6F00082802002072
:1050C00003B401984100009850EAC12018BF0420A1
:1050D0004A0D18BF40F0010040F2FF72B2EB515F81
:1050E00008BF40F00200012808BF052002B0704749
:1050F00002480068C0F30220704700000CED00E099
:1051000010B5002804DB0A07130E054A135406E005
:105110000A07140E034A00F00F031B1FD45410BDDE
:1051200000E400E018ED00E010B5B94A2DED020BE7
:105130002DED0C8B82B00F9921F000409FEDB6CB86
:1051400090422CDBA0F140530E9AA3F17F631A43E7
:105150000FD0B349884202DC16D10E98A0B19DED64
:105160000E0B02B0BDEC0C8B02B0BDE8104000F09D
:105170001FBE0029C1BF9FEDAC0B02B0BDEC0C8B74
:1051800002B0C8BF10BD16E0012000F055FE02B00D
:10519000BDEC0C8B02B0BDE8104000F01DBEA44A6F
:1051A0009FEDA59B9FEDA6AB90425EDAA6499FEDD1
:1051B000A8CB814208DBB0EE4C0AF0EE6C0A02B0DC
:1051C000BDEC0C8B02B010BD9DED0E0B53EC102B03
:1051D00051EC100BFBF790F941EC180B9E4806219F
:1051E000B0EE480AF0EE680A784400F065FD53EC32
:1051F000182B51EC100BFBF77FF941EC1B0B974878
:10520000B0EE480AF0EE680A0421784400F054FD3C
:1052100053EC182B51EC100BFBF76EF953EC192BD8
:10522000FBF7C3F841EC100B51EC1B0B53EC102BAC
:10523000FBF7D4F941EC100B53EC102B9DED0E0B4A
:1052400051EC100BFBF758F953EC1A2BFBF751F903
:105250009DED0E1B53EC112BFBF74BF953EC1C2B64
:10526000FBF747F941EC100BA9E79FED7D8B9FED14
:105270007EBB9DED0E0B002953EC192B51EC100B4E
:1052800052DAFBF792F853EC182BFBF735F941ECA7
:10529000180B77480621B0EE480AF0EE680A784409
:1052A00000F00AFD53EC182B51EC100BFBF724F91E
:1052B00041EC1D0B6F48B0EE480AF0EE680A04217D
:1052C000784400F0F9FC53EC182B51EC100BFBF771
:1052D00013F953EC192BFBF768F841EC190B51EC5F
:1052E000180B04F0A5FB41EC180B53EC192B51ECF7
:1052F0001D0BFBF773F953EC182BFBF7FDF853EC80
:105300001A2BFBF7F3F841EC100B51EC180B53EC94
:10531000102BFBF74AF853EC1B2BFBF7EDF853EC83
:105320001C2BFBF7E6F86DE0FBF7E3F853EC182BCA
:10533000FBF7E2F841EC180B04F07AFB41EC1A0B96
:1053400000208DED00AB00909DED000B51EC1A0B91
:1053500053EC102BFBF729F89DED000B41EC1C0BD7
:1053600053EC102B51EC100BFBF7C6F853EC182B39
:10537000FBF7BFF853EC1C2BFBF730F941EC1C0B8F
:105380003D48B0EE480AF0EE680A0621784400F085
:1053900093FC53EC182B51EC100BFBF7ADF841ECE0
:1053A0001D0B3648B0EE480AF0EE680A0421784436
:1053B00000F082FC53EC182B51EC100BFBF79CF81F
:1053C00053EC192BFAF7F1FF41EC100B51EC1D0BCC
:1053D00053EC102BFBF702F953EC1A2BFBF78CF86C
:1053E00053EC1C2BFAF7E1FF41EC100B53EC102BA4
:1053F0009DED000B51EC100BFAF7D7FF53EC1B2B74
:10540000FBF77AF841EC100BD9E600000000000031
:105410000000F03F00000000182D4454FB2109401B
:105420000000F07F0000000000000000000000000D
:105430000000E03F00000000000000000000F03F1E
:10544000075C143326A6913C0000603C000000007D
:10545000182D4454FB21F93FA4660000B2660000F9
:10546000000000000000E03F0000000000000040DD
:10547000EE650000FC650000006500000E650000A0
:1054800070B5C1482DED020B2DED0E8B82B0119D34
:1054900025F000449FEDBEDB9FEDBFEB84423EDB79
:1054A000A4F140511098A1F17F6108430FD0BC488E
:1054B000844202DC28D1109830B39DED100B02B06D
:1054C000BDEC0E8B02B0BDE8704000F071BC9DEDEC
:1054D000100B53EC1D2B51EC100BFBF70DF89DED51
:1054E000100B41EC180B53EC1E2B51EC100BFBF77F
:1054F00003F853EC182BFAF758FF41EC100B02B0ED
:10550000BDEC0E8B02B070BD012000F095FC02B026
:10551000BDEC0E8B02B0BDE8704000F05DBCA14850
:105520009FEDA18B844256DA9DED100BB4F1795FAB
:105530000ADA51EC100BFFF7C3FD042808BF00F096
:105540005BFC9DED100BDAE753EC102B51EC100BCC
:10555000FAF7D2FF41EC190B95480621B0EE490A43
:10556000F0EE690A784400F0A7FB53EC192B51ECDC
:10557000100BFAF7C1FF41EC1A0B8E48B0EE490A46
:10558000F0EE690A0421784400F096FB53EC192BE5
:1055900051EC100BFAF7B0FF53EC182BFAF705FF9C
:1055A00041EC100B51EC1A0B53EC102BFBF716F8D7
:1055B000CDE900019DED000B53EC102B9DED100B80
:1055C00051EC100BFAF798FF9DED101B53EC112BCB
:1055D000FAF7EBFED2E09DED100B51EC100B01F051
:1055E000C9FC53EC182BFAF784FF9FED730BCDE940
:1055F000000153EC102B9DED000B51EC100BFAF752
:105600007BFF41EC190B6E480621B0EE490AF0EE23
:10561000690A784400F050FB53EC192B51EC100B45
:10562000FAF76AFF41EC1B0B6648B0EE490AF0EE50
:10563000690A0421784400F03FFB53EC192B51EC2C
:10564000100BFAF759FF53EC182BFAF7AEFE41ECAA
:105650001C0B51EC190B04F0EBF941EC180B5A48F8
:105660009FED5BABA04222DC53EC1C2B51EC1B0BDF
:10567000FAF7B4FFCDE900019DED000B51EC180BDA
:1056800053EC102BFAF738FF53EC182BFAF78DFE7A
:1056900053EC1A2BFAF730FF53EC1D2BFAF726FFC9
:1056A00053EC1E2BFAF725FF41EC100B5FE08DED5C
:1056B000008B002000909DED000B51EC180B53EC7B
:1056C000102BFAF772FE9DED000B41EC1E0B53EC14
:1056D000102B51EC100BFAF70FFF53EC192BFAF7C4
:1056E00008FF53EC1E2BFAF779FF41EC190B53EC32
:1056F0001C2B51EC1B0BFAF771FF41EC1B0B53EC0D
:105700001A2B51EC190BFAF7F7FE53EC1D2BFAF795
:10571000F0FE41EC190B53EC1A2B51EC180BFAF775
:10572000EBFE53EC1B2BFAF7E7FE53EC192BFAF7C1
:10573000DDFE9DED000B41EC180B53EC1A2B51ECE8
:10574000100BFAF7D9FE9FED249B53EC192BFAF7B7
:10575000D0FE41EC100B51EC180B53EC102BFAF768
:10576000C5FE53EC192BFAF7C4FE41EC100B002DCB
:105770003FF7C5AE51EC100B81F0004141EC100B2E
:10578000BDE60000000000000000F03F0000000047
:10579000075C143326A6913C182D4454FB21F93F95
:1057A0000000F07F0000E03F000000000000F03F3C
:1057B0007863000086630000000000000000E03F06
:1057C000CA620000D86200003333EF3F00000000DF
:1057D0000000000000000040182D4454FB21E93F68
:1057E00070B59B482DED020B2DED068B079D25F026
:1057F0000044A04218DC9748844202DC0AD1069893
:1058000040B19DED060BBDEC068B02B0BDE87040CB
:1058100000F0CEBA002DCCBF9FED8F0B9FED900B0B
:10582000BDEC068B02B070BD8F48A04215DD8F48DD
:10583000A042D8BF4FF0FF3458DD9DED060B51EC70
:10584000100BFFF73DFC042808BF00F0D5FA9DEDD2
:10585000060BBDEC068B02B070BD9DED060B51EC46
:10586000100B01F087FBCDE9060181489FED828B8B
:10587000A0423CDD8248A0421FDD00249FED82ABA8
:105880009DED060B53EC1A2B51EC100BFAF78DFD26
:105890009DED060B41EC190B53EC1A2B51EC100B40
:1058A000FAF72AFE53EC182BFAF720FE53EC192BCB
:1058B000FAF794FECDE9060149E09DED060B0124BF
:1058C00053EC182B51EC100BFAF76FFD9DED060B06
:1058D00041EC190B53EC182B51EC100BFAF706FEA8
:1058E00053EC192BFAF77AFECDE906012FE0684850
:1058F000A0421FDD02249FED689B9DED060B53EC3B
:10590000192B51EC100BFAF7F7FD53EC182BFAF7A3
:105910004CFD9DED060B41EC180B53EC192B51EC93
:10592000100BFAF7E3FD53EC182BFAF757FECDE90D
:1059300006010CE09DED060B032453EC102B9FEDAC
:10594000580B51EC100BFAF749FECDE906019DED1D
:10595000060B53EC102B51EC100BFAF7CDFD41EC7C
:10596000180B53EC182BFAF7C7FD41EC190B4E48F6
:105970000621B0EE490AF0EE690A784400F09CF97D
:1059800053EC182B51EC100BFAF7B6FD41EC180B49
:105990004648B0EE490AF0EE690A0521784400F065
:1059A0008BF953EC192B51EC100BFAF7A5FD41ECD8
:1059B000100B51EC180B53EC102B002C0EDAFAF7ED
:1059C000F4FC9DED061B53EC112BFAF795FD9DEDB4
:1059D000061B53EC112BFAF78CFD35E0FAF7E5FCCA
:1059E0009DED061B53EC112BFAF786FD41EC100BD5
:1059F0002F48784400EBC40090ED001B51EC100BD5
:105A000053EC112BFAF772FD9DED061B53EC112B95
:105A1000FAF76CFD41EC100B2648784400EBC4000B
:105A200090ED001B51EC100B53EC112BFAF761FDBC
:105A300041EC100B002DA2BFBDEC068B02B070BD77
:105A400051EC100B81F0004141EC100B01E700001C
:105A5000000010440000F07F182D4454FB21F93F52
:105A6000182D4454FB21F9BF0000DC3F0000203E0C
:105A70000000F33F00000000000000000000F03FC5
:105A80000000E63F000000000000000000000040B1
:105A90000080034000000000000000000000F83F0C
:105AA000000000000000F0BF1A600000D05F00009E
:105AB0005A5F0000125F000070B56F4E2DED040BB1
:105AC0002DED048B82B0DDF824C0DDE907235C42B4
:105AD0002CF000411C4341EAD474069D22F00040A2
